:100000000C9476010C949E010C949E010C949E011C
:100010000C949E010C949E010C949E010C949E01E4
:100020000C949E010C949E010C9488070C940F086C
:100030000C949E010C949E010C949E010C949E01C4
:100040000C949E010C949E010C949E010C949E01B4
:100050000C949E010C949E010C949E010C945809E2
:100060000C949E010C94C4030C9412040C949E01F5
:100070000C949E010C949E010C949E010C949E0184
:100080000C949E010C949E010C949E010C949E0174
:100090000C949E010C949E010C949E010C949E0164
:1000A0000C949E010C949E010C949E010000000093
:1000B000240027002A002D00300000000000250049
:1000C00028002B002E003100000000002300260035
:1000D00029002C002F000404040404030405020278
:1000E00002020403020202020606060606060404D1
:1000F00002020204040802011040804010204080E7
:10010000408008020401804020100201108010206D
:1001100040400000000200080E0000030401000B34
:1001200000000000000000000000000000000000CF
:10013000070605040100080A0B0C0D09080B000254
:10014000020201000904000001020200000524006F
:100150001001052401010104240206052406000102
:100160000705810310004009040100020A00000095
:100170000705020240000007058302400000040357
:1001800009042203410072006400750069006E00DA
:100190006F0020004C0065006F006E00610072006F
:1001A00064006F001803410072006400750069006C
:1001B0006E006F0020004C004C0043001201000252
:1001C00000000040412336800001010200011201BD
:1001D00000020200004041233680000101020001BC
:1001E00000C18081C105010902A1010901A10085A9
:1001F00001050919012903150025019503750181E0
:100200000295017505810305010930093109381589
:1002100081257F750895038106C0C005010906A1E7
:10022000018502050719E029E715002501750195EB
:10023000088102950175088103950675081500254A
:10024000650507190029658100C009040200010342
:100250000000000921010100012265000705840357
:1002600040000100000000000000002A2B280000D0
:10027000000000000000000000000000000000007E
:100280000000002C9EB4A0A1A2A434A6A7A5AE365F
:100290002D3738271E1F20212223242526B333B6CD
:1002A0002EB7B89F8485868788898A8B8C8D8E8FA0
:1002B000909192939495969798999A9B9C9D2F31A3
:1002C00030A3AD350405060708090A0B0C0D0E0F07
:1002D000101112131415161718191A1B1C1DAFB183
:1002E000B0B50000F8027E05C406890A11241FBEBD
:1002F000CFEFDAE0DEBFCDBF11E0A0E0B1E0E8E78C
:10030000F7E102C005900D92AE33B107D9F712E0C4
:10031000AEE3B1E001C01D92A935B107E1F712E0EB
:10032000CCEED2E004C02297FE010E94B60BC43E80
:10033000D107C9F70E94D4050C94BA0B0C940000A5
:1003400082E891E060E072EC0E94AD0288E192E008
:1003500040E052EC61E070E00E944D0480910001A9
:1003600061E00E94ED018091000161E00E947A024B
:10037000089582E891E00E94AE02892BF1F082E8B4
:1003800091E00E94D502682F772767FD709588E17C
:1003900092E00E943E0560E070E080910201909141
:1003A0000301892B11F461E070E070930301609305
:1003B0000201809100010E947A0288E192E00E948D
:1003C000D404892B49F088E192E00E940505682F4A
:1003D00082E891E00E940F030895CF93DF93482FA6
:1003E00050E0CA018C509F4FFC0134914A525F4F3C
:1003F000FA018491882369F190E0880F991FFC012C
:10040000E455FF4FA591B491FC01E654FF4FC5910F
:10041000D491662351F42FB7F8948C91932F909533
:1004200089238C93888189230BC0623061F42FB7B4
:10043000F8948C91932F909589238C938881832BAA
:1004400088832FBF06C09FB7F8948C91832B8C9321
:100450009FBFDF91CF910895883071F1893068F4A2
:10046000823031F1833020F4813009F042C01DC068
:10047000833089F08430E9F512C08B3059F18C302B
:1004800028F48930E9F08A30A1F51EC08C3031F1B2
:100490008E3079F529C0809180008F7703C08091DC
:1004A00080008F7D80938000089584B58F7702C08F
:1004B00084B58F7D84BD0895809190008F7707C0AB
:1004C000809190008F7D03C080919000877F809302
:1004D000900008958091C0008F7703C08091C00084
:1004E0008F7D8093C00008958091C200877F8093A4
:1004F000C2000895FF920F931F93F62E482F50E0ED
:10050000CA018E5E9E4FFC012491CA018C509F4F00
:10051000FC0114914A525F4FFA0104910023C9F083
:10052000222319F0822F0E942C02E02FF0E0EE0F20
:10053000FF1FE654FF4FA591B4919FB7F894FF2099
:1005400021F48C911095812302C08C91812B8C9386
:100550009FBF1F910F91FF900895089520917E01F4
:1005600030917F018091800190918101281B390B8E
:100570002F733070C901089520917E0130917F0161
:1005800080918001909181012817390719F42FEF8C
:100590003FEF09C0E0918001F0918101E25CFE4FE4
:1005A0008081282F30E0C901089520917E0130918B
:1005B0007F0180918001909181012817390719F4FA
:1005C0002FEF3FEF13C0E0918001F0918101E25CD9
:1005D000FE4F2081809180019091810101968F735F
:1005E0009070909381018093800130E0C90108955B
:1005F000109285011092840188EE93E0A0E0B0E0B3
:100600008093860190938701A0938801B09389011C
:1006100082E191E0909383018093820108950F938A
:100620001F93DF93CF930F92CDB7DEB78C01698311
:1006300080910B01882369F083E0BE016F5F7F4FDB
:1006400041E050E00E94E3061816190614F49C01DC
:1006500007C081E090E0F8019383828320E030E0DE
:10066000C9010F90CF91DF911F910F91089583E001
:100670000E94BA060895CF93DF9312C082E00E94D1
:1006800045062FEF8F3F9207C9F0E0917E01F09170
:100690007F01E25CFE4F8083D0937F01C0937E0197
:1006A000C0917E01D0917F012196CF73D07080914F
:1006B000800190918101C817D90701F7DF91CF918F
:1006C0000895FC0180818E5F808380E86CE371E097
:1006D00042E450E00E945E060895FC018181908111
:1006E000913A59F4813209F04CC080E064E071E045
:1006F00047E050E00E945E0642C0913209F041C0DE
:10070000803239F484E091E067E070E00E94A20654
:1007100036C0823209F035C0828180930B0180910E
:10072000040190910501A0910601B0910701805B41
:100730009440A040B04019F580910B0180FD12C09B
:1007400087E797E790930108809300082BE088E102
:1007500090E00FB6F894A895809360000FBE2093A8
:1007600060000DC088E10FB6F8948093600010928D
:1007700060000FBEA895109201081092000881E059
:10078000089580E0089508951F920F920FB60F927A
:1007900011242F933F934F938F939F93EF93FF9346
:1007A0008091C80082FD1DC04091CE002091D001F3
:1007B0003091D1012F5F3F4F2F7330708091D20164
:1007C0009091D3012817390771F0E091D001F09191
:1007D000D101E057FE4F40833093D1012093D001E7
:1007E00002C08091CE00FF91EF919F918F914F9128
:1007F0003F912F910F900FBE0F901F901895E09191
:100800002402F0912502E05CFF4F819191912081BB
:100810003181821B930B8F739070892B11F00E9492
:10082000C30308951F920F920FB60F9211242F93B6
:100830003F938F939F93EF93FF93209114023091F6
:10084000150280911602909117022817390731F48A
:100850008091C9008F7D8093C90014C0E091160279
:10086000F0911702EC52FE4F208180911602909178
:10087000170201968F73907090931702809316025F
:100880002093CE00FF91EF919F918F913F912F91F7
:100890000F900FBE0F901F901895AF92BF92DF92EE
:1008A000EF92FF920F931F93CF93DF93EC017A01A6
:1008B0008B01DD24403081EE580780E0680780E03E
:1008C000780711F0DD24D39491E0A92EB12CEC89A6
:1008D000FD89DD2069F0C50108A002C0880F991FBD
:1008E0000A94E2F7808360E079E08DE390E005C050
:1008F000108260E874E88EE190E0A80197010E9400
:10090000920B2150304040405040569547953795C6
:10091000279580E12030380720F0DD2011F0DD241C
:10092000D6CFE889F9893083EA89FB89208319A227
:10093000EE89FF89408121E030E0C9010C8C02C0C2
:10094000880F991F0A94E2F7482B4083EE89FF89AC
:100950004081C9010D8C02C0880F991F0A94E2F7EB
:10096000482B4083EE89FF894081C9010E8C02C06B
:10097000880F991F0A94E2F7482B4083EE89FF897C
:1009800080810F8C02C0220F331F0A94E2F720955A
:1009900028232083DF91CF911F910F91FF90EF903B
:1009A000DF90BF90AF900895DC011C96ED91FC9113
:1009B0001D97E05CFF4F2191319180819181281B2F
:1009C000390B2F733070C9010895DC011C96ED912D
:1009D000FC911D97E05CFF4F20813181E054F04095
:1009E000DF01AE5BBF4F8D919C911197281739079E
:1009F00019F42FEF3FEF07C08D919C91E80FF91F7D
:100A00008081282F30E0C9010895DC011C96ED910A
:100A1000FC911D97E05CFF4F20813181E054F04054
:100A2000DF01AE5BBF4F8D919C911197281739075D
:100A300019F42FEF3FEF10C08D919C911197E80FA3
:100A4000F91F20818D919C91119701968F73907061
:100A500011969C938E9330E0C9010895DC01919624
:100A60008C919197882339F05496ED91FC9155978C
:100A7000808186FFF9CF91961C920895CF93DF93E2
:100A8000EC01EE85FF85E05CFF4F20813181E05471
:100A9000F0402F5F3F4F2F733070DF01AE5BBF4FD1
:100AA0008D919C91119728173907D1F3E05CFF4F86
:100AB00080819181E054F040E80FF91F6083EE855A
:100AC000FF85E05CFF4F31832083EE89FF89208121
:100AD00081E090E00F8C02C0880F991F0A94E2F722
:100AE000282B208381E089A3EC89FD8980818064A3
:100AF000808381E090E0DF91CF91089510921B02F6
:100B000010921A0288EE93E0A0E0B0E080931C02FD
:100B100090931D02A0931E02B0931F0284E291E005
:100B2000909319028093180280E991E09093250236
:100B30008093240284ED91E0909327028093260213
:100B40008DEC90E090932902809328028CEC90E049
:100B500090932B0280932A0288EC90E090932D02D0
:100B600080932C0289EC90E090932F0280932E02C8
:100B70008AEC90E090933102809330028EEC90E00A
:100B8000909333028093320284E08093340283E0B6
:100B90008093350287E08093360285E080933702A8
:100BA00081E0809338020895CF93DF930E94F90982
:100BB00082E492E00E94C5060E94A001CFEFD3E03C
:100BC0000E94B9012097E1F30E94FF03F9CFCF9271
:100BD000DF92EF92FF920F931F93CF93DF937C01ED
:100BE0006B018A01C0E0D0E00FC0D6016D916D01AC
:100BF000D701ED91FC910190F081E02DC70109959D
:100C0000C80FD91F015010400115110571F7CE0111
:100C1000DF91CF911F910F91FF90EF90DF90CF90D8
:100C20000895282F80913C028823C1F057FF1AC0F5
:100C300015C0289890933B028091F1008193E217B0
:100C4000F307B9F74115510539F08091F200882377
:100C500019F48BE68093E800AFBF02C04FEF5FEF5F
:100C6000CA010895AFB7F89427702093E9008091E6
:100C7000F200282F30E0241735070CF4A901FB01FE
:100C80009B01240F311D94E6DACFDF93CF930F92AF
:100C9000CDB7DEB7BE016F5F7F4F41E050E00E94ED
:100CA0001106019719F02FEF3FEF03C08981282F1C
:100CB00030E0C9010F90CF91DF910895FF920F931B
:100CC0001F93F82E142F052F40913F0250914002A0
:100CD000212F302FC901DC01FB016EEF29C0F7FE87
:100CE00002C0949101C0908120913D0230913E025A
:100CF00024173507ACF48091E8008570E1F380910A
:100D0000E80082FF03C02FEF3FEF17C09093F10080
:100D1000C90101968F739070892B11F46093E800DC
:100D20002F5F3F4F30933E0220933D021197319643
:100D30001097A9F6812F902F9C01C9011F910F9147
:100D4000FF9008959C018091E80082FFFCCFF9019B
:100D5000260F311D03C08091F1008193E217F30744
:100D6000D1F7289884E680933B028BEF8093E800CC
:100D7000CB0108958093E9008091F200882319F057
:100D80008AE38093E8000895089510923C0281E080
:100D90008093D70080EA8093D80082E189BD09B4AE
:100DA00000FEFDCF61E070E080E090E00E94A009CD
:100DB00080E98093D8008CE08093E2001092E000FC
:100DC000559A209A08955F926F927F928F929F9288
:100DD000AF92BF92CF92DF92EF92FF920F931F9349
:100DE000CF93DF93E82E842E752E80913C028823CA
:100DF00071F18B01242F352FC901EC017AEFF72E09
:100E000067E0962E9E2050E4552E8E2D90E040E215
:100E1000A42EB12CA822B9223AE3632E20E4C22EDC
:100E2000D12CC822D92258C09FB7F8949092E900DB
:100E30008091E80085FD02C020E004C08091F200AE
:100E4000252D281B9FBF222361F4FA9419F42FEF5C
:100E50003FEF4DC061E070E080E090E00E94A009AB
:100E60003BC0822F90E0C817D9070CF42C2FC21B6F
:100E7000D1094FB7F8949092E900A114B10421F47C
:100E800006C01092F10021502223D9F719C0E7FCC7
:100E900003C0F801922F10C0C801322F06C0FC0118
:100EA0000196E491E093F10031503323C1F706C07D
:100EB00081918093F10091509923D1F7020F111D78
:100EC0008091E80085FF05C0209729F4C114D10462
:100ED00011F06092E8004FBF209709F0A5CF5D9810
:100EE00084E680933A02282D372DC9019C01C9015F
:100EF000DF91CF911F910F91FF90EF90DF90CF90F6
:100F0000BF90AF909F908F907F906F905F9008956B
:100F10001F920F920FB60F9211242F933F934F936E
:100F20005F936F937F938F939F93AF93BF93EF9351
:100F3000FF938091E1001092E100982F83FF0FC092
:100F40001092E90081E08093EB001092EC0082E3C4
:100F50008093ED0010923C0288E08093F00092FFB5
:100F600034C083E08093E9008091F200882319F077
:100F70008AE38093E8008FB7F89492E09093E900B9
:100F80009091F2008FBF992321F082E891E00E94B6
:100F90003B0380913A02882351F080913A028150BC
:100FA00080933A0280913A02882309F45D9A8091F5
:100FB0003B02882351F080913B02815080933B0299
:100FC00080913B02882309F4289AFF91EF91BF9109
:100FD000AF919F918F917F916F915F914F913F91D1
:100FE0002F910F900FBE0F901F9018950F931F9386
:100FF000DF93CF930F92CDB7DEB719828E010F5FCB
:101000001F4FC8010E946103C8010E94860B89819D
:1010100090E00F90CF91DF911F910F9108951F9253
:101020000F920FB60F921124EF92FF921F932F93FE
:101030003F934F935F936F937F938F939F93AF9360
:10104000BF93EF93FF93DF93CF93CDB7DEB7619755
:10105000DEBFCDBF1092E9008091E80083FF0FC191
:10106000FE0131969E01275F3F4F03C08091F10042
:101070008193E217F307D1F7289884E680933B0227
:1010800082EF8093E800998197FF05C08091E80086
:1010900080FFFCCF03C08EEF8093E800292F30E063
:1010A000C90180769070892B09F0C2C08A8188239B
:1010B00029F41092F1001092F100D6C0813009F4A9
:1010C000D3C0833009F4D0C0853049F48091E80062
:1010D00080FFFCCF8B8180688093E300C5C08630A1
:1010E00009F07CC01C81EF80F8841230C1F51092A9
:1010F000E90010923E0210923D02109240021092BE
:101100003F020E94F60799E0FE013996DF01292F80
:101110001D922A95E9F799871A8791E09E8790E8B2
:10112000988B9AEF998B20913D0230913E02275F78
:101130003F4F3C872B878D871092E90010923E022B
:1011400010923D02F0924002E0923F0280E0BF0127
:1011500049E050E00E945E060E94F60785C01092AA
:10116000E90010923E0210923D02F0924002E0929D
:101170003F02123241F482E290E00E947E0B892B02
:1011800009F476C071C0113079F488E0E816F104F2
:1011900019F481E08093410280914102882309F093
:1011A0006BC0ECEBF1E013C0133009F061C08B8130
:1011B000882319F4EEE7F1E00AC0823019F4E2E87E
:1011C000F1E005C0813009F053C0E4EAF1E0449158
:1011D00080E8BF0150E00E945E0646C0873009F4F7
:1011E00047C0883021F481E08093F1003DC0893010
:1011F000D9F523703070232BD9F5E1EEF1E091E0C1
:1012000031E026E39093E9003093EB0084918093E2
:10121000EC002093ED009F5F3196953099F78EE7B3
:101220008093EA001092EA008B8180933C021CC0FC
:101230008F8198851092E90010923E0210923D0233
:101240009093400280933F028D81882329F4CE0140
:1012500001960E946D0306C0823051F4CE010196C2
:101260000E944F0A882321F08EEF8093E80007C088
:1012700081E28093EB0003C0EEECF1E0A8CF619631
:10128000DEBFCDBFCF91DF91FF91EF91BF91AF91C5
:101290009F918F917F916F915F914F913F912F918E
:1012A0001F91FF90EF900F900FBE0F901F90189519
:1012B0001F920F920FB60F9211242F933F938F938B
:1012C0009F93AF93BF938091470290914802A09162
:1012D0004902B0914A0230914B020196A11DB11D05
:1012E000232F2D5F2D3720F02D570196A11DB11D05
:1012F00020934B028093470290934802A0934902A7
:10130000B0934A028091430290914402A091450219
:10131000B09146020196A11DB11D809343029093A6
:101320004402A0934502B0934602BF91AF919F91B2
:101330008F913F912F910F900FBE0F901F90189596
:101340009B01AC017FB7F8948091430290914402D5
:10135000A0914502B091460266B5A89B05C06F3FBB
:1013600019F00196A11DB11D7FBFBA2FA92F982F8B
:101370008827860F911DA11DB11D62E0880F991F5E
:10138000AA1FBB1F6A95D1F7BC012DC0FFB7F89407
:101390008091430290914402A0914502B09146028F
:1013A000E6B5A89B05C0EF3F19F00196A11DB11D40
:1013B000FFBFBA2FA92F982F88278E0F911DA11D2F
:1013C000B11DE2E0880F991FAA1FBB1FEA95D1F754
:1013D000861B970B885E9340C8F2215030404040F6
:1013E000504068517C4F211531054105510571F67A
:1013F0000895789484B5826084BD84B5816084BD8D
:1014000085B5826085BD85B5816085BDEEE6F0E07D
:10141000808181608083E1E8F0E0108280818260D9
:101420008083808181608083E0E8F0E0808181605A
:101430008083E1E9F0E08081826080838081816047
:101440008083E0E9F0E0808181608083E1ECF0E07E
:1014500080818460808380818260808380818160DC
:101460008083E3ECF0E0808181608083E0ECF0E059
:10147000808182608083E2ECF0E080818160808303
:10148000EAE7F0E0808184608083808182608083ED
:101490008081816080838081806880830895FC01E1
:1014A00091818081813A31F4913089F080E09330EC
:1014B00089F40DC0813269F49B3021F482818093DC
:1014C0000C0105C09A3029F4828180930D0181E0DE
:1014D000089580E00895EF92FF920F931F938C017F
:1014E000E62EDC01ED91FC910480F581E02D09955B
:1014F000F82ED801ED91FC910680F781E02DC8010E
:101500006E2D09958F2D90E01F910F91FF90EF9018
:10151000089510924C021092500210924F0284E3F0
:1015200091E090934E0280934D020895EF92FF92C6
:101530000F931F93DF93CF930F92CDB7DEB78983BD
:101540008B017A0184E0BE016F5F7F4F41E050E084
:101550000E94E30684E4B801A7010E94E3060F900D
:10156000CF91DF911F910F91FF90EF90089582E04E
:1015700048E050E00E94960A0895FC011682178206
:10158000108611861286138614823496BF010E943B
:10159000B70A0895DC01683810F0685829C0E62FB2
:1015A000F0E067FF13C0E058F04081E090E002C037
:1015B000880F991FEA95E2F7809514962C9114975D
:1015C000282314962C93149760E012C0ED59FD4F18
:1015D0006491662319F420E030E01DC067FF08C065
:1015E00014968C9114978D7F14968C9314976F7723
:1015F000FD0190E0662321F08681861709F41682AA
:101600009F5F31969630B1F7CD011496BD010E94CF
:10161000B70A21E030E0C9010895CF93DF93DC01E0
:10162000683810F0685825C0E62FF0E067FF12C058
:10163000E058F04081E090E002C0880F991FEA95E1
:10164000E2F714962C911497282B14962C93149748
:1016500060E00FC0ED59FD4F64916623D9F167FF3B
:1016600008C014968C911497826014968C931497EA
:101670006F7716968C9116978617A9F117968C910D
:101680001797861781F118968C911897861759F13C
:1016900019968C911997861731F11A968C911A9791
:1016A000861709F11B968C911B978617E1F0ED01C7
:1016B000E0E0F0E09E2F8E81882321F4EA0FFB1FEB
:1016C000668306C09F5F31962196E630F10591F75B
:1016D000963049F481E090E013969C938E93129794
:1016E00020E030E007C0CD011496BD010E94B70A8A
:1016F00021E030E0C901DF91CF91089580E865EEE7
:1017000071E045E650E00E945E060895FC0180818C
:101710008F5F808380E86AE472E049E150E00E94D4
:101720005E060895A1E21A2EAA1BBB1BFD010DC087
:10173000AA1FBB1FEE1FFF1FA217B307E407F50781
:1017400020F0A21BB30BE40BF50B661F771F881F5D
:10175000991F1A9469F760957095809590959B01F3
:10176000AC01BD01CF010895EE0FFF1F0590F4916C
:10177000E02D0994F894FFCF0D00010000E1000076
:10178000000000000101000000000F03E705AE02A9
:10179000D502BC0237033B03000000003E05E7050D
:1017A000D4040505E5042E05000000006B0AE705DA
:1017B0000D0BCA0ABD0AFFFFFFFFFFFFFFFFFFFF80
:1017C000FFFFFFFFFFFFFFFFFFFFFFFFFFFFFFFF29
:1017D000FFFFFFFFFFFFFFFFFFFFFFFFFFFFFFFF19
:1017E000FFFFFFFFFFFFFFFFFFFFFFFFFFFFFFFF09
:1017F000FFFFFFFFFFFFFFFFFFFFFFFFFFFFFFFFF9
:101800000895A1E21A2EAA1BBB1BFD010DC0AA1F41
:10181000BB1FEE1FFF1FA217B307E407F50720F059
:10182000A21BB30BE40BF50B661F771F881F991FD4
:101830001A9469F760957095809590959B01AC011D
:10184000BD01CF010895EE0FFF1F0590F491E02D2B
:101850000994F894FFCF4453323E000D000100017B
:1018600000E10000000000000101000000002F0363
:101870000706CE02F502DC0257035B0300000000FE
:101880005E050706F404250505054E050000000069
:10189000DA0A07067C0B390B2C0BFFFFFFFFFFFF5B
:1018A000FFFFFFFFFFFFFFFFFFFFFFFFFFFFFFFF48
:1018B000FFFFFFFFFFFFFFFFFFFFFFFFFFFFFFFF38
:1018C000FFFFFFFFFFFFFFFFFFFFFFFFFFFFFFFF28
:1018D000FFFFFFFFFFFFFFFFFFFFFFFFFFFFFFFF18
:1070000055C000006EC000006CC000006AC00000E7
:1070100068C0000066C0000064C0000062C00000DC
:1070200060C000005EC00000F2C400005AC0000052
:1070300058C0000056C0000054C0000052C00000FC
:1070400050C0000078C000004CC000004AC00000E2
:1070500048C0000046C0000044C0000042C000001C
:1070600040C000003EC000003CC000003AC000002C
:1070700038C0000036C0000034C0000032C000003C
:1070800030C000002EC000002CC000002AC000004C
:1070900028C0000026C0000024C0000022C000005C
:1070A00020C000001EC000001CC0000011241FBE34
:1070B000CFEFDAE0DEBFCDBF11E0A0E0B1E0E2E368
:1070C000FFE702C005900D92A83AB107D9F711E089
:1070D000A8EAB1E001C01D92AE3BB107E1F78FD342
:1070E00026C78ECFF89410926F00109281001092F4
:1070F00085001092840081E085BF15BE47985D9A97
:10710000289A0C94000008952091B2013091B301A7
:107110002F5F3F4F3093B3012093B201932F37FF7E
:1071200003C08EEF831B982F990F921710F4479886
:107130000895479A08951F920F920FB60F92112447
:107140002F938F939F93EF93FF931092850010924C
:1071500084008091A8019091A901009741F00197C6
:107160009093A9018093A801892B09F45D9A8091DD
:10717000AA019091AB01009741F001979093AB0168
:107180008093AA01892B09F4289AE0E0F0E0859128
:1071900094918F5F9F4F49F08091AC019091AD0128
:1071A00001969093AD018093AC01FF91EF919F9177
:1071B0008F912F910F900FBE0F901F90189584E024
:1071C0008093E9000DC08091E8008B778093E80000
:1071D00003C08EB3882351F08091E80082FFF9CF7D
:1071E0008091E80085FFEFCF8091F1000895982FFE
:1071F00083E08093E9008091E80085FD0DC08091D7
:10720000E8008E778093E80003C08EB3882369F08E
:107210008091E80080FFF9CF9093F1005D9884E6BB
:1072200090E09093A9018093A80108954F925F92F6
:107230006F927F928F929F92AF92BF92CF92DF9286
:10724000EF92FF920F931F93CF93DF9384E080938D
:10725000E9008091E80082FF57C2289884E690E018
:107260009093AB018093AA01AADF182F853481F493
:107270008CE49DE19093AD018093AC0107B600FCD6
:10728000FDCFF999FECF81E180935700E89503C0C7
:10729000843519F494DF8DE00DC28C34E1F3803530
:1072A000D1F3843721F484E4A2DF80E003C2813685
:1072B00011F489E5FFC18134B1F481DF182F7FDF3C
:1072C00090E0880F991FAA2797FDA095BA2F312F1C
:1072D000330F20E0442737FD4095542F822B932B0A
:1072E000A42BB52BB8C1803711F483E5E3C18335F6
:1072F00049F4C0E0D1E089917ADF21E0C730D207BC
:10730000D1F7D9C1863521F481E371DF80E3D2C1A1
:10731000833731F487E86BDF85E969DF8EE1CAC125
:107320008536B9F4E0E0F0E093E085E09093570013
:10733000E89507B600FCFDCF80935700E89507B6A7
:1073400000FCFDCFE058FF4FA0E7E030FA0771F7EF
:10735000A2CF823739F4E1E0F0E089E08093570072
:107360008491A8C1863439F4E0E0F0E089E08093AC
:10737000570084919FC18E3439F4E3E0F0E089E056
:1073800080935700849196C1813539F4E2E0F0E0B2
:1073900089E08093570084918DC1823631F489E56C
:1073A00026DF80E024DF80E885C1823419F087364B
:1073B00009F0E5C01092AD011092AC0100DF082F7A
:1073C000FEDEF82EFCDE682E8554823008F071C196
:1073D000902F80E0CF2DD0E0C82BD92B10926F00DA
:1073E000173609F04BC081E180935700E895DD2402
:1073F000CC24C3943FC0E090AE01F090AF01009167
:10740000B0011091B101B6E46B16D9F4ED2DF0E0A6
:10741000EE29FF29E4918E2FEADEDD2081F082E063
:1074200090E0A0E0B0E0E80EF91E0A1F1B1FE092FA
:10743000AE01F092AF010093B0011093B101DC24D2
:1074400018C0D801C701B695A7959795879559D5C6
:10745000CEDE82E090E0A0E0B0E0E80EF91E0A1F68
:107460001B1FE092AE01F092AF010093B0011093A8
:10747000B1012197209709F0BECF7DC08090AE0169
:107480009090AF01A090B001B090B10196E4691660
:1074900009F05DC083E0F40180935700E89507B6DA
:1074A00000FCFDCF54C0F6E46F1661F5772031F192
:1074B000E090AE01F090AF010091B0011091B101E8
:1074C0007EDED82ECC24852D90E08C299D29F701D5
:1074D0000C0140925700E895112482E090E0A0E072
:1074E000B0E0E80EF91E0A1F1B1FE092AE01F092F9
:1074F000AF010093B0011093B10102C060DE582EBD
:10750000742423C0E090AE01F090AF010091B0016F
:107510001091B10116950795F794E79450DE682F06
:10752000C701F7D48091AE019091AF01A091B00155
:10753000B091B1010296A11DB11D8093AE0190934F
:10754000AF01A093B001B093B101219704C05524BD
:10755000772444244394209709F0A5CF96E4691634
:1075600041F485E0F40180935700E89507B600FCEC
:10757000FDCF8DE03CDE82E080936F009CC08334C1
:1075800071F40091AE011091AF0119DE90E021E09D
:10759000F8010C0120935700E89511247CCE833626
:1075A00019F5E090AE01F090AF010091B00110919B
:1075B000B10105DEF701E16090E021E00C012093CC
:1075C0005700E895112482E090E0A0E0B0E0E80EDA
:1075D000F91E0A1F1B1FE092AE01F092AF0100934B
:1075E000B0011093B10157CE8D3661F4E091AE0138
:1075F000F091AF0185E080935700E89507B600FC55
:10760000FDCF49CE823551F4E091AE01F091AF014A
:1076100005911491812FEBDD802F4CC0843421F52E
:10762000E090AE01F090AF010091B0011091B10176
:1076300016950795F794E794C2DD682FC70169D4C2
:107640008091AE019091AF01A091B001B091B101D4
:107650000296A11DB11D8093AE019093AF01A0933E
:10766000B001B093B10117CE843609F5E090AE01B8
:10767000F090AF010091B0011091B101D801C701A4
:10768000B695A795979587953CD4B1DD82E090E0BB
:10769000A0E0B0E0E80EF91E0A1F1B1FE092AE0149
:1076A000F092AF010093B0011093B10104C08B318F
:1076B00011F08FE39CDD83E08093E9009091E80076
:1076C0008091E8008E778093E80095FF04C010C099
:1076D0008EB38823C9F08091E80080FFF9CF8091B4
:1076E000E8008E778093E80003C08EB3882361F0B2
:1076F0008091E80080FFF9CF84E08093E9008091D9
:10770000E8008B778093E800DF91CF911F910F9174
:10771000FF90EF90DF90CF90BF90AF909F908F90B1
:107720007F906F905F904F9008959091B601892F50
:107730008F77813249F58091B7018032A1F0813293
:1077400019F5913A09F58091E800877F8093E80068
:107750008DE091E067E070E00BD28091E8008B77DC
:107760008093E8000895913279F48091E800877F52
:107770008093E8008DE091E067E070E05DD2809159
:10778000E8008E778093E800089582E061EC42E0A3
:10779000B5D083E061E842E1B1D084E060E842E145
:1077A000ADC084B7877F84BF88E10FB6F89480931B
:1077B0006000109260000FBE20E880E090E00FB6FD
:1077C000F89420936100809361000FBE81E085BF33
:1077D00092E095BF3F9A209A559AE1E6F0E0208327
:1077E000108247985D9A289A109289008AEF8093B8
:1077F000880090936F0083E080938100F0C04091F7
:10780000000850910108109201081092000894B7E6
:1078100014BE88E10FB6F894809360001092600067
:107820000FBE292F30E0F901E270F07091FD18C011
:1078300090FF05C0859194918F5F9F4F81F423FF46
:107840000FC08091090190910A014817590741F032
:10785000E0E0F0E0859194918F5F9F4F09F042DC6A
:10786000A0DF78941092AD011092AC010CC0DEDC68
:1078700036D38091AC019091AD0181549F4110F0BD
:107880001092140141DC80911401882381F78091CA
:10789000E00081608093E00025DC80E090E00895C6
:1078A000FA01923049F0933061F09130F9F485E1BA
:1078B00091E022E130E01EC087E291E02EE330E06B
:1078C00019C0882329F485E691E024E030E012C055
:1078D000813029F489E691E022E230E00BC0823069
:1078E00029F48DE891E028E130E004C080E090E0E8
:1078F00020E030E091838083C90108958093E900FE
:107900008091EB0081608093EB001092ED0060931A
:10791000EC004093ED008091EE00881F8827881FBF
:1079200008958091B60188238CF403C08EB3882318
:10793000B1F08091E80082FFF9CF8091E8008B7769
:107940008093E80008958EB3882349F08091E80081
:1079500080FFF9CF8091E8008E778093E80008954A
:10796000EF92FF920F931F9345D04CD008ED10E09B
:10797000F80180818F778083808180688083808117
:107980008F7D808319BC1EBA1092B40180EEE82E60
:10799000F12CF70180818B7F8083F80180818160E9
:1079A000808380E060E042E0A9DFE1EEF0E08081EA
:1079B0008E7F8083E2EEF0E0808181608083808131
:1079C00088608083F70180818E7F8083F8018081C9
:1079D000806180831F910F91FF90EF900895E7EDF4
:1079E000F0E08081816080838AE482BF81E08093BF
:1079F000B501B6CFE8EDF0E080818E7F80831092F4
:107A0000E20008951092DA001092E10008951F92AA
:107A10000F920FB60F9211242F933F934F935F93C2
:107A20006F937F938F939F93AF93BF93EF93FF9346
:107A30008091DA0080FF1BC08091D80080FF17C0C2
:107A40008091DA008E7F8093DA008091D90080FFE8
:107A50000BC080E189BD82E189BD09B400FEFDCF84
:107A600081E08EBB3BD203C019BC1EBA37D28091D5
:107A7000E10080FF17C08091E20080FF13C0809179
:107A8000E2008E7F8093E2008091E200806180932B
:107A9000E2008091D80080628093D80019BC85E014
:107AA0008EBB1CD28091E10084FF2CC08091E2004B
:107AB00084FF28C080E189BD82E189BD09B400FE50
:107AC000FDCF8091D8008F7D8093D8008091E10018
:107AD0008F7E8093E1008091E2008F7E8093E200B0
:107AE0008091E20081608093E2008091B40188235C
:107AF00031F48091E30087FD02C081E001C084E0A1
:107B00008EBBECD18091E10083FF21C08091E20027
:107B100083FF1DC08091E100877F8093E10082E0B8
:107B20008EBB1092B4018091E1008E7F8093E100C2
:107B30008091E2008E7F8093E2008091E20080617C
:107B40008093E20080E060E042E0D8DEC7D1FF91A0
:107B5000EF91BF91AF919F918F917F916F915F91C5
:107B60004F913F912F910F900FBE0F901F9018953E
:107B70009C014091BC015091BD014617570718F474
:107B8000F90190E044C06115710511F0AB01F8CF27
:107B90008091E8008E778093E80040E050E0F0CFDD
:107BA0008EB3882309F444C0853009F443C0809122
:107BB000E80083FF02C081E008958091E80082FD23
:107BC00031C08091E80080FF22C08091F300909145
:107BD000F200782F60E0292F30E0262B372B07C0EA
:107BE00081918093F100415050402F5F3F4F4115EC
:107BF000510519F02830310598F390E0283031050F
:107C000009F491E08091E8008E778093E8004115B7
:107C1000510531F6992321F605C08EB3882341F032
:107C2000853041F08091E80082FFF7CF80E0089531
:107C300082E0089583E008959C016115710529F49F
:107C40008091E8008B778093E800F90126C08EB31D
:107C5000882391F1853091F18091E80083FF02C083
:107C600081E008958091E80082FFF1CF06C0809105
:107C7000F10081936150704059F02091F3008091A0
:107C8000F200322F20E090E0822B932B892B79F7A2
:107C90008091E8008B778093E80061157105B9F653
:107CA00005C08EB3882341F0853041F08091E80013
:107CB00080FFF7CF80E0089582E0089583E0089583
:107CC0000F931F93DF93CF9300D0CDB7DEB7E6EBD2
:107CD000F1E08091F100819381E0EE3BF807C9F774
:107CE00024DD8091E80083FFE4C08091B60190918B
:107CF000B701953009F46DC0963040F4913081F1B0
:107D0000913070F0933009F0D4C02AC0983009F453
:107D1000A3C0993009F4B2C0963009F0CAC07CC043
:107D2000803809F4C6C0823809F0C3C08091BA0116
:107D300087708093E9008091EB001092E900209118
:107D4000E800277F2093E80090E025E0969587954E
:107D50002A95E1F781708093F1001092F10087C0BD
:107D6000882319F0823009F0A4C08F71823009F0A5
:107D7000A0C08091B801882331F52091BA01277005
:107D800009F497C02093E9008091EB0080FF1BC0AD
:107D9000933021F48091EB00806213C08091EB005E
:107DA00080618093EB0081E090E002C0880F991F12
:107DB0002A95E2F78093EA001092EA008091EB00A6
:107DC00088608093EB001092E9008091E800877F43
:107DD00051C0882309F06DC01091B8011F770FB70B
:107DE000F8948091E800877F8093E8009ADD809185
:107DF000E80080FFFCCF8091E3008078812B8093A6
:107E0000E30080688093E300112311F482E001C055
:107E100083E08EBB0FBF4DC08058823008F049C050
:107E20008091B8019091B9016091BA01AE014F5FA4
:107E30005F4F36DDBC01009709F43BC08091E8003C
:107E4000877F8093E80089819A8192DE8091E800A3
:107E50008B778093E8002DC0803859F58091E80039
:107E6000877F8093E8008091B4018093F100809136
:107E7000E8008E778093E80054DD1BC08823C9F4A6
:107E80009091B8019230A8F48091E800877F8093A8
:107E9000E8009093B40145DD8091B401882331F46A
:107EA0008091E30087FD02C081E001C084E08EBBC9
:107EB0006CDC8091E80083FF0AC08091EB00806257
:107EC0008093EB008091E800877F8093E8000F901B
:107ED0000F90CF91DF911F910F91089508951F93F7
:107EE0008EB3882361F01091E9001092E90080912F
:107EF000E80083FF01C0E4DE17701093E9001F91D2
:107F00000895F999FECF92BD81BDF89A992780B561
:107F10000895262FF999FECF1FBA92BD81BD20BDCD
:107F20000FB6F894FA9AF99A0FBE01960895F8944C
:107F3000FFCF4341544552494E4100777700080036
:107F400000000000000801120110010200000841B9
:107F500023360001000201000109023E0002010077
:107F60008032090400000102020100052400100112
:107F7000042402040524060001070582030800FF0B
:107F800009040100020A00000007050402100001B4
:107F90000705830210000104030904220341007253
:107FA000006400750069006E006F0020004C0065E1
:107FB000006F006E006100720064006F0000001826
:107FC00003410072006400750069006E006F0020BC
:107FD000004C004C004300000000FFFFFFFFFFFFCC
:107FE000FFFFFFFFFFFFFFFFFFFFFFFFFFFFFFFFA1
:107FF000FFFFFFFFFFFFFFFFFFFFFFFFFFFFFFFF91
:00000001FF
