:100000000C942E010C9456010C9456010C9456013C
:100010000C9456010C9456010C9456010C94560104
:100020000C9456010C9456010C9487060C940E0700
:100030000C9456010C9456010C9456010C945601E4
:100040000C9456010C9456010C9456010C945601D4
:100050000C9456010C9456010C9456010C94260AEB
:100060000C9456010C94EA010C9438020C9456013D
:100070000C9456010C9456010C9456010C945601A4
:100080000C9456010C9456010C9456010C94560194
:100090000C9456010C9456010C9456010C94560184
:1000A0000C9456010C9456010C945601080B000256
:1000B0000202010009040000010202000005240000
:1000C0001001052401010104240206052406000193
:1000D0000705810310004009040100020A00000026
:1000E00007050202400000070583024000000403E8
:1000F00009042203410072006400750069006E006B
:100100006F002000590075006E00200020002000C4
:10011000200020001803410072006400750069008F
:100120006E006F0020004C004C00430012010002E2
:100130000000004041234180000101020001120142
:100140000002020000404123418000010102000141
:1001500000C18081C105010902A1010901A1008539
:100160000105091901290315002501950375018170
:10017000029501750581030501093009310938151A
:1001800081257F750895038106C0C005010906A178
:10019000018502050719E029E7150025017501957C
:1001A00008810295017508810395067508150025DB
:1001B000650507190029658100C0090402000103D3
:1001C00000000009210101000122650007058403E8
:1001D00040000100000000000000002A2B28000061
:1001E000000000000000000000000000000000000F
:1001F0000000002C9EB4A0A1A2A434A6A7A5AE36F0
:100200002D3738271E1F20212223242526B333B65D
:100210002EB7B89F8485868788898A8B8C8D8E8F30
:10022000909192939495969798999A9B9C9D2F3133
:1002300030A3AD350405060708090A0B0C0D0E0F97
:10024000101112131415161718191A1B1C1DAFB113
:10025000B0B50000A4034504C305A40811241FBEC3
:10026000CFEFDAE0DEBFCDBF11E0A0E0B1E0EEEA13
:10027000F6E102C005900D92AE38B107D9F712E051
:10028000AEE8B1E001C01D92AA3AB107E1F712E071
:10029000CCE5D2E004C02297FE010E94510BC43588
:1002A000D107C9F70E9457080C94550B0C94000015
:1002B0008DE792E060E072EC0E94FA0340914F01FA
:1002C00050915001609151017091520187E192E08B
:1002D0000E94730208951F938DE792E00E94FB0332
:1002E000892B09F465C08DE792E00E942204182F43
:1002F00080918E01882379F41E3721F481E0809368
:100300008E0156C0612F772767FD709587E192E0D7
:100310000E9464034DC0103369F487E192E040E02D
:1003200051EE60E070E00E9473028DE792E060E0C1
:1003300071E00EC0113379F487E192E040E052ECB5
:1003400061E070E00E9473028DE792E063E171E08A
:100350000E94130A2BC0123369F487E192E040E94E
:1003600050ED63E070E00E9473028DE792E067E277
:1003700071E0EECF133369F487E192E040E251EA95
:1003800067E070E00E9473028DE792E06BE371E03A
:10039000DFCF87E192E06EE70E946403612F772749
:1003A00067FD709587E192E00E94640310928E01D0
:1003B00087E192E00E94FA02892B49F087E192E0FE
:1003C0000E942B03682F8DE792E00E945C041F912E
:1003D000089508951F920F920FB60F9211242F9334
:1003E0003F934F938F939F93EF93FF938091C80018
:1003F00082FD1DC04091CE002091CF013091D001EF
:100400002F5F3F4F2F7330708091D1019091D201B7
:100410002817390771F0E091CF01F091D001E15731
:10042000FE4F40833093D0012093CF0102C08091D2
:10043000CE00FF91EF919F918F914F913F912F911E
:100440000F900FBE0F901F901895E0912302F0912E
:100450002402E05CFF4F8191919120813181821BC8
:10046000930B8F739070892B11F00E94E90108950E
:100470001F920F920FB60F9211242F933F938F93D9
:100480009F93EF93FF932091130230911402809178
:100490001502909116022817390731F48091C9008E
:1004A0008F7D8093C90014C0E0911502F09116026F
:1004B000ED52FE4F20818091150290911602019617
:1004C0008F73907090931602809315022093CE0044
:1004D000FF91EF919F918F913F912F910F900FBEC0
:1004E0000F901F901895AF92BF92DF92EF92FF92FC
:1004F0000F931F93CF93DF93EC017A018B01DD24DF
:10050000403081EE580780E0680780E0780711F0FE
:10051000DD24D39491E0A92EB12CEC89FD89DD2056
:1005200069F0C50108A002C0880F991F0A94E2F77C
:10053000808360E079E08DE390E005C0108260E8A0
:1005400074E88EE190E0A80197010E942D0B2150E4
:10055000304040405040569547953795279580E16B
:100560002030380720F0DD2011F0DD24D6CFE889D7
:10057000F9893083EA89FB89208319A2EE89FF89F2
:10058000408121E030E0C9010C8C02C0880F991F26
:100590000A94E2F7482B4083EE89FF894081C90124
:1005A0000D8C02C0880F991F0A94E2F7482B4083F4
:1005B000EE89FF894081C9010E8C02C0880F991F06
:1005C0000A94E2F7482B4083EE89FF8980810F8CE3
:1005D00002C0220F331F0A94E2F7209528232083BC
:1005E000DF91CF911F910F91FF90EF90DF90BF901F
:1005F000AF900895DC011C96ED91FC911D97E05C95
:10060000FF4F2191319180819181281B390B2F73EC
:100610003070C9010895DC011C96ED91FC911D9785
:10062000E05CFF4F20813181E054F040DF01AE5BA0
:10063000BF4F8D919C9111972817390719F42FEF0F
:100640003FEF07C08D919C91E80FF91F8081282F03
:1006500030E0C9010895DC011C96ED91FC911D97D5
:10066000E05CFF4F20813181E054F040DF01AE5B60
:10067000BF4F8D919C9111972817390719F42FEFCF
:100680003FEF10C08D919C911197E80FF91F2081C9
:100690008D919C91119701968F73907011969C93F8
:1006A0008E9330E0C9010895DC0191968C91919769
:1006B000882339F05496ED91FC915597808186FFFF
:1006C000F9CF91961C920895CF93DF93EC01EE85BC
:1006D000FF85E05CFF4F20813181E054F0402F5FC7
:1006E0003F4F2F733070DF01AE5BBF4F8D919C91F8
:1006F000119728173907D1F3E05CFF4F8081918172
:10070000E054F040E80FF91F6083EE85FF85E05C60
:10071000FF4F31832083EE89FF89208181E090E0C3
:100720000F8C02C0880F991F0A94E2F7282B2083B0
:1007300081E089A3EC89FD8980818064808381E0E8
:1007400090E0DF91CF91089510921A021092190251
:1007500088EE93E0A0E0B0E080931B0290931C022F
:10076000A0931D02B0931E0281E691E090931802BF
:10077000809317028FE891E09093240280932302E4
:1007800083ED91E090932602809325028DEC90E01A
:1007900090932802809327028CEC90E090932A0299
:1007A0008093290288EC90E090932C0280932B0296
:1007B00089EC90E090932E0280932D028AEC90E0D9
:1007C0009093300280932F028EEC90E0909332024F
:1007D0008093310284E08093330283E0809334027B
:1007E00087E08093350285E08093360281E0809334
:1007F0003702089508952091790230917A0280910C
:100800007B0290917C02281B390B2F733070C90139
:1008100008952091790230917A0280917B02909123
:100820007C022817390719F42FEF3FEF09C0E09138
:100830007B02F0917C02E75CFD4F8081282F30E045
:10084000C90108952091790230917A0280917B024A
:1008500090917C022817390719F42FEF3FEF13C04E
:10086000E0917B02F0917C02E75CFD4F208180915A
:100870007B0290917C0201968F73907090937C0222
:1008800080937B0230E0C90108951092800210929B
:100890007F0288EE93E0A0E0B0E080938102909325
:1008A0008202A0938302B093840281E791E0909347
:1008B0007E0280937D0208950F931F93DF93CF9361
:1008C0000F92CDB7DEB78C01698380915A018823DE
:1008D00069F083E0BE016F5F7F4F41E050E00E940E
:1008E000E2051816190614F49C0107C081E090E097
:1008F000F8019383828320E030E0C9010F90CF910B
:10090000DF911F910F91089583E00E94B90508952A
:10091000CF93DF9312C082E00E9444052FEF8F3FF8
:100920009207C9F0E0917902F0917A02E75CFD4FFD
:100930008083D0937A02C0937902C0917902D091DA
:100940007A022196CF73D07080917B0290917C02C5
:10095000C817D90701F7DF91CF910895FC01808175
:100960008E5F808380E86CEA70E042E450E00E9491
:100970005D050895FC0181819081913A59F481329D
:1009800009F04CC080E063E571E047E050E00E9470
:100990005D0542C0913209F041C0803239F483E5EF
:1009A00091E067E070E00E94A10536C0823209F054
:1009B00035C0828180935A018091530190915401F6
:1009C000A0915501B0915601805B9440A040B04089
:1009D00019F580915A0180FD12C087E797E790933F
:1009E0000108809300082BE088E190E00FB6F894AE
:1009F000A895809360000FBE209360000DC088E131
:100A00000FB6F89480936000109260000FBEA89516
:100A1000109201081092000881E0089580E0089586
:100A2000282F80918D028823C1F057FF1AC015C06E
:100A3000289890938C028091F1008193E217F3073C
:100A4000B9F74115510539F08091F200882319F466
:100A50008BE68093E800AFBF02C04FEF5FEFCA01A3
:100A60000895AFB7F89427702093E9008091F200C1
:100A7000282F30E0241735070CF4A901FB019B0156
:100A8000240F311D94E6DACFDF93CF930F92CDB7C9
:100A9000DEB7BE016F5F7F4F41E050E00E9410055E
:100AA000019719F02FEF3FEF03C08981282F30E025
:100AB000C9010F90CF91DF910895FF920F931F937B
:100AC000F82E142F052F4091900250919102212F62
:100AD000302FC901DC01FB016EEF29C0F7FE02C017
:100AE000949101C0908120918E0230918F02241741
:100AF0003507ACF48091E8008570E1F38091E8005F
:100B000082FF03C02FEF3FEF17C09093F100C901A0
:100B100001968F739070892B11F46093E8002F5F1A
:100B20003F4F30938F0220938E021197319610978A
:100B3000A9F6812F902F9C01C9011F910F91FF9061
:100B400008959C018091E80082FFFCCFF901260FF7
:100B5000311D03C08091F1008193E217F307D1F7B3
:100B6000289884E680938C028BEF8093E800CB0179
:100B700008958093E9008091F200882319F08AE3B8
:100B80008093E8000895089510928D0281E080938B
:100B9000D70080EA8093D80082E189BD09B400FEC5
:100BA000FDCF61E070E080E090E00E94C40A80E93F
:100BB0008093D8008CE08093E2001092E000559A78
:100BC000209A08955F926F927F928F929F92AF9238
:100BD000BF92CF92DF92EF92FF920F931F93CF932A
:100BE000DF93E82E842E752E80918D02882371F17B
:100BF0008B01242F352FC901EC017AEFF72E67E026
:100C0000962E9E2050E4552E8E2D90E040E2A42E8C
:100C1000B12CA822B9223AE3632E20E4C22ED12CB3
:100C2000C822D92258C09FB7F8949092E9008091C9
:100C3000E80085FD02C020E004C08091F200252D6F
:100C4000281B9FBF222361F4FA9419F42FEF3FEF82
:100C50004DC061E070E080E090E00E94C40A3BC0BB
:100C6000822F90E0C817D9070CF42C2FC21BD10992
:100C70004FB7F8949092E900A114B10421F406C092
:100C80001092F10021502223D9F719C0E7FC03C0CC
:100C9000F801922F10C0C801322F06C0FC01019646
:100CA000E491E093F10031503323C1F706C0819104
:100CB0008093F10091509923D1F7020F111D80917B
:100CC000E80085FF05C0209729F4C114D10411F074
:100CD0006092E8004FBF209709F0A5CF5D9884E6A9
:100CE00080938B02282D372DC9019C01C901DF910A
:100CF000CF911F910F91FF90EF90DF90CF90BF9019
:100D0000AF909F908F907F906F905F9008951F920B
:100D10000F920FB60F9211242F933F934F935F932F
:100D20006F937F938F939F93AF93BF93EF93FF93B3
:100D30008091E1001092E100982F83FF0FC0109284
:100D4000E90081E08093EB001092EC0082E3809355
:100D5000ED0010928D0288E08093F00092FF34C085
:100D600083E08093E9008091F200882319F08AE300
:100D70008093E8008FB7F89492E09093E900909107
:100D8000F2008FBF992321F08DE792E00E94880442
:100D900080918B02882351F080918B028150809347
:100DA0008B0280918B02882309F45D9A80918C02DA
:100DB000882351F080918C02815080938C02809125
:100DC0008C02882309F4289AFF91EF91BF91AF918B
:100DD0009F918F917F916F915F914F913F912F9153
:100DE0000F900FBE0F901F9018950F931F93DF93D6
:100DF000CF930F92CDB7DEB719828E010F5F1F4FD1
:100E0000C8010E94AE04C8010E94A109898190E036
:100E10000F90CF91DF911F910F9108951F920F9224
:100E20000FB60F921124EF92FF921F932F933F93CF
:100E30004F935F936F937F938F939F93AF93BF93E2
:100E4000EF93FF93DF93CF93CDB7DEB76197DEBF0C
:100E5000CDBF1092E9008091E80083FF0FC1FE0131
:100E600031969E01275F3F4F03C08091F10081932F
:100E7000E217F307D1F7289884E680938C0282EF7B
:100E80008093E800998197FF05C08091E80080FF7A
:100E9000FCCF03C08EEF8093E800292F30E0C9011A
:100EA00080769070892B09F0C2C08A81882329F44A
:100EB0001092F1001092F100D6C0813009F4D3C035
:100EC000833009F4D0C0853049F48091E80080FF78
:100ED000FCCF8B8180688093E300C5C0863009F029
:100EE0007CC01C81EF80F8841230C1F51092E900BB
:100EF00010928F0210928E02109291021092900224
:100F00000E94F50699E0FE013996DF01292F1D9216
:100F10002A95E9F799871A8791E09E8790E8988B40
:100F20009AEF998B20918E0230918F02275F3F4F6D
:100F30003C872B878D871092E90010928F021092C8
:100F40008E02F0929102E092900280E0BF0149E0AF
:100F500050E00E945D050E94F50685C01092E900F0
:100F600010928F0210928E02F0929102E092900203
:100F7000123241F482E290E00E949909892B09F42F
:100F800076C071C0113079F488E0E816F10419F4E4
:100F900081E08093920280919202882309F06BC0D5
:100FA000ECE2F1E013C0133009F061C08B818823BB
:100FB00019F4EEEEF0E00AC0823019F4E2EFF0E04E
:100FC00005C0813009F053C0E4E1F1E0449180E8CC
:100FD000BF0150E00E945D0546C0873009F447C05C
:100FE000883021F481E08093F1003DC08930D9F54B
:100FF00023703070232BD9F5E1E5F1E091E031E089
:1010000026E39093E9003093EB0084918093EC0009
:101010002093ED009F5F3196953099F78EE780938E
:10102000EA001092EA008B8180938D021CC08F81B0
:1010300098851092E90010928F0210928E02909380
:101040009102809390028D81882329F4CE0101962C
:101050000E94BA0406C0823051F4CE0101960E946B
:101060006A08882321F08EEF8093E80007C081E2B0
:101070008093EB0003C0EEE3F1E0A8CF6196DEBF02
:10108000CDBFCF91DF91FF91EF91BF91AF919F9134
:101090008F917F916F915F914F913F912F911F9110
:1010A000FF90EF900F900FBE0F901F901895CF9369
:1010B000DF930E946E0A83E992E00E94C4050E94B9
:1010C0005801C5E2D2E00E946B012097E1F30E9433
:1010D0002502F9CFFC0191818081813A31F4913070
:1010E00089F080E0933089F40DC0813269F49B303F
:1010F00021F4828180935B0105C09A3029F48281BA
:1011000080935C0181E0089580E00895EF92FF9262
:101110000F931F938C01E62EDC01ED91FC9104806E
:10112000F581E02D0995F82ED801ED91FC9106800E
:10113000F781E02DC8016E2D09958F2D90E01F914C
:101140000F91FF90EF9008951092940210929802E0
:101150001092970283E891E0909396028093950213
:101160000895EF92FF920F931F93DF93CF930F9207
:10117000CDB7DEB789838B017A0184E0BE016F5F52
:101180007F4F41E050E00E94E20584E4B801A701EE
:101190000E94E2050F90CF91DF911F910F91FF9078
:1011A000EF90089582E048E050E00E94B108089571
:1011B000FC0116821782108611861286138614820D
:1011C0003496BF010E94D2080895DC01683810F0FF
:1011D000685829C0E62FF0E067FF13C0E058F040E0
:1011E00081E090E002C0880F991FEA95E2F78095B0
:1011F00014962C911497282314962C93149760E03E
:1012000012C0ED52FE4F6491662319F420E030E0E5
:101210001DC067FF08C014968C9114978D7F14969B
:101220008C9314976F77FD0190E0662321F08681FF
:10123000861709F416829F5F31969630B1F7CD017B
:101240001496BD010E94D20821E030E0C901089542
:10125000CF93DF93DC01683810F0685825C0E62F83
:10126000F0E067FF12C0E058F04081E090E002C07B
:10127000880F991FEA95E2F714962C911497282B62
:1012800014962C93149760E00FC0ED52FE4F6491BA
:101290006623D9F167FF08C014968C911497826079
:1012A00014968C9314976F7716968C9116978617D1
:1012B000A9F117968C911797861781F118968C9142
:1012C0001897861759F119968C911997861731F14D
:1012D0001A968C911A97861709F11B968C911B9779
:1012E0008617E1F0ED01E0E0F0E09E2F8E8188238B
:1012F00021F4EA0FFB1F668306C09F5F319621969B
:10130000E630F10591F7963049F481E090E01396CC
:101310009C938E93129720E030E007C0CD01149685
:10132000BD010E94D20821E030E0C901DF91CF91D8
:10133000089580E865E571E045E650E00E945D05AE
:101340000895FC0180818F5F808380E86AEB71E003
:1013500049E150E00E945D050895CF92DF92EF923F
:10136000FF920F931F93CF93DF937C016B018A0150
:10137000C0E0D0E00FC0D6016D916D01D701ED91B5
:10138000FC910190F081E02DC7010995C80FD91F8C
:10139000015010400115110571F7CE01DF91CF9179
:1013A0001F910F91FF90EF90DF90CF900895EF92F3
:1013B000FF920F931F938C01DC01ED91FC91019042
:1013C000F081E02D6DE009957C01D801ED91FC9153
:1013D0000190F081E02DC8016AE009959C012E0D75
:1013E0003F1DC9011F910F91FF90EF900895CF937A
:1013F000DF93EC016115710519F420E030E00FC0B6
:10140000DB010D900020E9F71197A61BB70BE881CF
:10141000F9810280F381E02DAD0109959C01C9019C
:10142000DF91CF910895EF92FF920F931F937C016C
:101430000E94F7098C01C7010E94D709080F191FE4
:10144000C8011F910F91FF90EF9008951F920F9286
:101450000FB60F9211242F933F938F939F93AF93C7
:10146000BF938091A5029091A602A091A702B0918E
:10147000A8023091A9020196A11DB11D232F2D5F55
:101480002D3720F02D570196A11DB11D2093A902E3
:101490008093A5029093A602A093A702B093A802FE
:1014A0008091A1029091A202A091A302B091A40206
:1014B0000196A11DB11D8093A1029093A202A09359
:1014C000A302B093A402BF91AF919F918F913F91DE
:1014D0002F910F900FBE0F901F901895789484B5A0
:1014E000826084BD84B5816084BD85B5826085BD20
:1014F00085B5816085BDEEE6F0E080818160808306
:10150000E1E8F0E0108280818260808380818160E8
:101510008083E0E8F0E0808181608083E1E9F0E0B1
:10152000808182608083808181608083E0E9F0E057
:10153000808181608083E1ECF0E080818460808341
:10154000808182608083808181608083E3ECF0E031
:10155000808181608083E0ECF0E080818260808324
:10156000E2ECF0E0808181608083EAE7F0E0808156
:1015700084608083808182608083808181608083B9
:101580008081806880830895EF92FF920F931F936C
:10159000CF93DF937B018C013FB7F8948091A10238
:1015A0009091A202A091A302B091A40226B5A89B9B
:1015B00005C02F3F19F00196A11DB11D3FBFBA2FE5
:1015C000A92F982F8827820F911DA11DB11D52E0D0
:1015D000880F991FAA1FBB1F5A95D1F7EC0130C085
:1015E0000E942C0B3FB7F8948091A1029091A20227
:1015F000A091A302B091A40226B5A89B05C02F3FDD
:1016000019F00196A11DB11D3FBFBA2FA92F982F28
:101610008827820F911DA11DB11D32E0880F991FEF
:10162000AA1FBB1F3A95D1F78C1B9D0B885E934078
:10163000B8F20894E108F10801091109C851DC4F1A
:10164000E114F1040105110559F6DF91CF911F91C5
:101650000F91FF90EF9008950895A1E21A2EAA1B12
:10166000BB1BFD010DC0AA1FBB1FEE1FFF1FA21752
:10167000B307E407F50720F0A21BB30BE40BF50B4F
:10168000661F771F881F991F1A9469F760957095D8
:10169000809590959B01AC01BD01CF010895EE0F9F
:0E16A000FF1F0590F491E02D0994F894FFCF00
:1016AE0053706565642073657420746F203537360A
:1016BE0030300053706565642073657420746F203C
:1016CE003131353230300053706565642073657486
:1016DE0020746F20323530303030005370656564C1
:1016EE002073657420746F203530303030300090A8
:1016FE00D0030000E1000000000000010100000026
:10170E00006403AD09FA022B030B0354030000001F
:10171E00005C04AD09FB0322040904840488040060
:0E172E000000008608AD092809E508D808006B
:1070000055C000006EC000006CC000006AC00000E7
:1070100068C0000066C0000064C0000062C00000DC
:1070200060C000005EC00000FCC400005AC0000048
:1070300058C0000056C0000054C0000052C00000FC
:1070400050C000005DC000004CC000004AC00000FD
:1070500048C0000046C0000044C0000042C000001C
:1070600040C000003EC000003CC000003AC000002C
:1070700038C0000036C0000034C0000032C000003C
:1070800030C000002EC000002CC000002AC000004C
:1070900028C0000026C0000024C0000022C000005C
:1070A00020C000001EC000001CC0000011241FBE34
:1070B000CFEFDAE0DEBFCDBF11E0A0E0B1E0E6E463
:1070C000FFE702C005900D92A63AB107D9F711E08B
:1070D000A6EAB1E001C01D92AF3BB107E1F74FD383
:1070E00030C78ECFF89410926F001092810081E02B
:1070F00085BF15BE47985D9A289A0C9400000895A4
:107100001F920F920FB60F9211242F938F939F937C
:10711000EF93FF9310928500109284008091A60156
:107120009091A701009741F001979093A701809358
:10713000A601892B09F45D9A8091A8019091A9017B
:10714000009741F001979093A9018093A801892BA2
:1071500009F4289A8091AC019091AD010196909329
:10716000AD018093AC01E0E0F0E0859194918F5FF8
:107170009F4F49F08091AA019091AB0101969093A5
:10718000AB018093AA01FF91EF919F918F912F9175
:107190000F900FBE0F901F90189584E08093E90028
:1071A0000DC08091E8008B778093E80003C08EB318
:1071B000882351F08091E80082FFF9CF8091E800A8
:1071C00085FFEFCF8091F1000895982F83E08093A1
:1071D000E9008091E80085FD0DC08091E8008E7780
:1071E0008093E80003C08EB3882369F08091E800A3
:1071F00080FFF9CF9093F1005D9884E690E0909342
:10720000A7018093A60108954F925F926F927F929B
:107210008F929F92AF92BF92CF92DF92EF92FF92A6
:107220000F931F93CF93DF9384E08093E9008091C5
:10723000E80082FF57C2289884E690E09093A90165
:107240008093A801AADF182F853481F48CE49DE196
:107250009093AB018093AA0107B600FCFDCFF9998A
:10726000FECF81E180935700E89503C0843519F47F
:1072700094DF8DE00DC28C34E1F38035D1F3843797
:1072800021F484E4A2DF80E003C2813611F489E5B1
:10729000FFC18134B1F481DF182F7FDF90E0880FC8
:1072A000991FAA2797FDA095BA2F312F330F20E001
:1072B000442737FD4095542F822B932BA42BB52BBD
:1072C000B8C1803711F483E5E3C1833549F4C0E0E8
:1072D000D1E089917ADF21E0C730D207D1F7D9C157
:1072E000863521F481E371DF80E3D2C1833731F445
:1072F00087E86BDF85E969DF8EE1CAC18536B9F4BD
:10730000E0E0F0E093E085E090935700E89507B661
:1073100000FCFDCF80935700E89507B600FCFDCF39
:10732000E058FF4FA0E7E030FA0771F7A2CF8237AD
:1073300039F4E1E0F0E089E0809357008491A8C13E
:10734000863439F4E0E0F0E089E0809357008491DE
:107350009FC18E3439F4E3E0F0E089E08093570078
:10736000849196C1813539F4E2E0F0E089E08093C0
:10737000570084918DC1823631F489E526DF80E0A3
:1073800024DF80E885C1823419F0873609F0E5C032
:107390001092AB011092AA0100DF082FFEDEF82E3A
:1073A000FCDE682E8554823008F071C1902F80E099
:1073B000CF2DD0E0C82BD92B10926F00173609F0D3
:1073C0004BC081E180935700E895DD24CC24C39421
:1073D0003FC0E090AF01F090B0010091B101109179
:1073E000B201B6E46B16D9F4ED2DF0E0EE29FF29D9
:1073F000E4918E2FEADEDD2081F082E090E0A0E0D3
:10740000B0E0E80EF91E0A1F1B1FE092AF01F092D8
:10741000B0010093B1011093B201DC2418C0D8016F
:10742000C701B695A7959795879575D5CEDE82E06D
:1074300090E0A0E0B0E0E80EF91E0A1F1B1FE092EA
:10744000AF01F092B0010093B1011093B201219706
:10745000209709F0BECF7DC08090AF019090B00121
:10746000A090B101B090B20196E4691609F05DC038
:1074700083E0F40180935700E89507B600FCFDCF48
:1074800054C0F6E46F1661F5772031F1E090AF015A
:10749000F090B0010091B1011091B2017EDED82EC2
:1074A000CC24852D90E08C299D29F7010C01409278
:1074B0005700E895112482E090E0A0E0B0E0E80EEB
:1074C000F91E0A1F1B1FE092AF01F092B00100935A
:1074D000B1011093B20102C060DE582E742423C0A3
:1074E000E090AF01F090B0010091B1011091B201B4
:1074F00016950795F794E79450DE682FC70113D5CA
:107500008091AF019091B001A091B101B091B20111
:107510000296A11DB11D8093AF019093B001A0937D
:10752000B101B093B201219704C0552477244424BB
:107530004394209709F0A5CF96E4691641F485E0BD
:10754000F40180935700E89507B600FCFDCF8DE06D
:107550003CDE82E080936F009CC0833471F4009124
:10756000AF011091B00119DE90E021E0F8010C01AB
:1075700020935700E89511247CCE833619F5E090CE
:10758000AF01F090B0010091B1011091B20105DEA0
:10759000F701E16090E021E00C0120935700E895AD
:1075A000112482E090E0A0E0B0E0E80EF91E0A1F8E
:1075B0001B1FE092AF01F092B0010093B101109354
:1075C000B20157CE8D3661F4E091AF01F091B00178
:1075D00085E080935700E89507B600FCFDCF49CEC3
:1075E000823551F4E091AF01F091B0010591149111
:1075F000812FEBDD802F4CC0843421F5E090AF016A
:10760000F090B0010091B1011091B201169507956B
:10761000F794E794C2DD682FC70185D48091AF014C
:107620009091B001A091B101B091B2010296A11D5B
:10763000B11D8093AF019093B001A093B101B093BD
:10764000B20117CE843609F5E090AF01F090B00199
:107650000091B1011091B201D801C701B695A7956B
:107660009795879558D4B1DD82E090E0A0E0B0E036
:10767000E80EF91E0A1F1B1FE092AF01F092B00145
:107680000093B1011093B20104C08B3111F08FE36C
:107690009CDD83E08093E9009091E8008091E80010
:1076A0008E778093E80095FF04C010C08EB38823C6
:1076B000C9F08091E80080FFF9CF8091E8008E77D3
:1076C0008093E80003C08EB3882361F08091E800C6
:1076D00080FFF9CF84E08093E9008091E8008B7708
:1076E0008093E800DF91CF911F910F91FF90EF9071
:1076F000DF90CF90BF90AF909F908F907F906F90D2
:107700005F904F9008959091B701892F8F778132C4
:1077100049F58091B8018032A1F0813219F5913A92
:1077200009F58091E800877F8093E8008CE091E084
:1077300067E070E027D28091E8008B778093E800C3
:107740000895913279F48091E800877F8093E80072
:107750008CE091E067E070E079D28091E8008E776C
:107760008093E800089582E061EC42E0D1D083E0AC
:1077700061E842E1CDD084E060E842E1C9C01F93F6
:10778000209100081092000844B714BE88E10FB69B
:10779000F89480936000109260000FBE80E8E0E0F3
:1077A000F0E00FB6F89480936100E09361000FBEA3
:1077B00031E035BF92E095BF3F9A209A559A809369
:1077C00061001092610047985D9A289A1092890092
:1077D0008AEF8093880090936F0083E0809381000C
:1077E000859194918F5F9F4F11F03093AE01942F4C
:1077F00041FF19C0809109012817A9F08093000862
:10780000789480911301882339F08091AC01909194
:10781000AD018F5E9240C8F310920008F89481E0A9
:10782000809313010CC090FF04C08091AE018823A7
:1078300051F493FF09C080910901281729F0809124
:10784000AE01882309F04EDCD4D078941092AB01BD
:107850001092AA011EEF20C0D7DC4BD38091AA0161
:107860009091AB0181549F4110F0109213018091CF
:10787000B3019091B40101969093B4018093B30148
:10788000292F97FF03C0512F591B252F220F28178F
:1078900010F4479801C0479A809113018823E1F6BC
:1078A0008091E00081608093E0001CDC80E090E04B
:1078B0001F910895FA01923049F0933061F09130B0
:1078C000F9F484E191E022E130E01EC086E291E02B
:1078D0002EE330E019C0882329F484E691E024E007
:1078E00030E012C0813029F488E691E022E230E0F5
:1078F0000BC0823029F48CE891E028E130E004C02C
:1079000080E090E020E030E091838083C901089519
:107910008093E9008091EB0081608093EB001092EE
:10792000ED006093EC004093ED008091EE00881F25
:107930008827881F08958091B70188238CF403C09D
:107940008EB38823B1F08091E80082FFF9CF809157
:10795000E8008B778093E80008958EB3882349F080
:107960008091E80080FFF9CF8091E8008E778093C6
:10797000E8000895EF92FF920F931F9345D04CD0EB
:1079800008ED10E0F80180818F7780838081806826
:10799000808380818F7D808319BC1EBA1092B501CF
:1079A00080EEE82EF12CF70180818B7F8083F80137
:1079B00080818160808380E060E042E0A9DFE1EEC9
:1079C000F0E080818E7F8083E2EEF0E08081816054
:1079D0008083808188608083F70180818E7F8083AF
:1079E000F8018081806180831F910F91FF90EF905B
:1079F0000895E7EDF0E08081816080838AE482BFB2
:107A000081E08093B601B6CFE8EDF0E080818E7F13
:107A100080831092E20008951092DA001092E10043
:107A200008951F920F920FB60F9211242F933F9338
:107A30004F935F936F937F938F939F93AF93BF9376
:107A4000EF93FF938091DA0080FF1BC08091D800F4
:107A500080FF17C08091DA008E7F8093DA008091DA
:107A6000D90080FF0BC080E189BD82E189BD09B4E6
:107A700000FEFDCF81E08EBB3BD203C019BC1EBA15
:107A800037D28091E10080FF17C08091E20080FF33
:107A900013C08091E2008E7F8093E2008091E2002B
:107AA00080618093E2008091D80080628093D8004A
:107AB00019BC85E08EBB1CD28091E10084FF2CC0F4
:107AC0008091E20084FF28C080E189BD82E189BD08
:107AD00009B400FEFDCF8091D8008F7D8093D8003F
:107AE0008091E1008F7E8093E1008091E2008F7EA3
:107AF0008093E2008091E20081608093E2008091B7
:107B0000B501882331F48091E30087FD02C081E054
:107B100001C084E08EBBECD18091E10083FF21C0E5
:107B20008091E20083FF1DC08091E100877F8093F8
:107B3000E10082E08EBB1092B5018091E1008E7F62
:107B40008093E1008091E2008E7F8093E20080913B
:107B5000E20080618093E20080E060E042E0D8DEF5
:107B6000C7D1FF91EF91BF91AF919F918F917F917D
:107B70006F915F914F913F912F910F900FBE0F909A
:107B80001F9018959C014091BD015091BE01461770
:107B9000570718F4F90190E044C06115710511F020
:107BA000AB01F8CF8091E8008E778093E80040E049
:107BB00050E0F0CF8EB3882309F444C0853009F437
:107BC00043C08091E80083FF02C081E00895809166
:107BD000E80082FD31C08091E80080FF22C08091E2
:107BE000F3009091F200782F60E0292F30E0262BEF
:107BF000372B07C081918093F100415050402F5F97
:107C00003F4F4115510519F02830310598F390E0A8
:107C10002830310509F491E08091E8008E77809357
:107C2000E8004115510531F6992321F605C08EB3C0
:107C3000882341F0853041F08091E80082FFF7CF42
:107C400080E0089582E0089583E008959C01611525
:107C5000710529F48091E8008B778093E800F901A1
:107C600026C08EB3882391F1853091F18091E80090
:107C700083FF02C081E008958091E80082FFF1CF88
:107C800006C08091F10081936150704059F02091BD
:107C9000F3008091F200322F20E090E0822B932BB2
:107CA000892B79F78091E8008B778093E800611544
:107CB0007105B9F605C08EB3882341F0853041F0D7
:107CC0008091E80080FFF7CF80E0089582E008957A
:107CD00083E008950F931F93DF93CF9300D0CDB728
:107CE000DEB7E7EBF1E08091F100819381E0EF3BBB
:107CF000F807C9F708DD8091E80083FFE4C08091B0
:107D0000B7019091B801953009F46DC0963040F4F8
:107D1000913081F1913070F0933009F0D4C02AC0D5
:107D2000983009F4A3C0993009F4B2C0963009F034
:107D3000CAC07CC0803809F4C6C0823809F0C3C00C
:107D40008091BB0187708093E9008091EB001092D5
:107D5000E9002091E800277F2093E80090E025E0EB
:107D6000969587952A95E1F781708093F10010929E
:107D7000F10087C0882319F0823009F0A4C08F7108
:107D8000823009F0A0C08091B901882331F520919B
:107D9000BB01277009F497C02093E9008091EB00A4
:107DA00080FF1BC0933021F48091EB00806213C0F0
:107DB0008091EB0080618093EB0081E090E002C055
:107DC000880F991F2A95E2F78093EA001092EA0043
:107DD0008091EB0088608093EB001092E900809125
:107DE000E800877F51C0882309F06DC01091B90168
:107DF0001F770FB7F8948091E800877F8093E800A1
:107E00009ADD8091E80080FFFCCF8091E3008078CC
:107E1000812B8093E30080688093E300112311F4A9
:107E200082E001C083E08EBB0FBF4DC0805882301E
:107E300008F049C08091B9019091BA016091BB01ED
:107E4000AE014F5F5F4F36DDBC01009709F43BC0C8
:107E50008091E800877F8093E80089819A8192DE93
:107E60008091E8008B778093E8002DC0803859F529
:107E70008091E800877F8093E8008091B50180932E
:107E8000F1008091E8008E778093E80054DD1BC0FC
:107E90008823C9F49091B9019230A8F48091E80048
:107EA000877F8093E8009093B50145DD8091B5010F
:107EB000882331F48091E30087FD02C081E001C096
:107EC00084E08EBB50DC8091E80083FF0AC0809183
:107ED000EB0080628093EB008091E800877F8093C5
:107EE000E8000F900F90CF91DF911F910F910895AF
:107EF00008951F938EB3882361F01091E9001092CA
:107F0000E9008091E80083FF01C0E4DE1770109360
:107F1000E9001F910895F999FECF92BD81BDF89AAD
:107F2000992780B50895262FF999FECF1FBA92BDE3
:107F300081BD20BD0FB6F894FA9AF99A0FBE01964A
:067F40000895F894FFCF44
:107F46004341544552494E41007700080000000065
:107F5600000008011201100102000008412341003F
:107F660001000201000109023E00020100803209FF
:107F7600040000010202010005240010010424028D
:107F8600040524060001070582030800FF09040111
:107F960000020A000000070504021000010705831D
:107FA6000210000104030904220341007200640068
:107FB600750069006E006F002000590075006E00A4
:107FC60020002000200020002000000018034100AF
:107FD60072006400750069006E006F0020004C009E
:067FE6004C004300000006
:040000030000700089
:00000001FF
